{
  "_format": "hh-sol-artifact-1",
  "contractName": "Campaign",
  "sourceName": "contracts/Campaign.sol",
  "abi": [
    {
      "inputs": [
        {
          "internalType": "string",
          "name": "_campaignName",
          "type": "string"
        },
        {
          "internalType": "uint256",
          "name": "_rewardAmount",
          "type": "uint256"
        },
        {
          "internalType": "uint256",
          "name": "_fundingAmount",
          "type": "uint256"
        }
      ],
      "stateMutability": "nonpayable",
      "type": "constructor"
    },
    {
      "inputs": [
        {
          "internalType": "address",
          "name": "",
          "type": "address"
        }
      ],
      "name": "allowedPromoter",
      "outputs": [
        {
          "internalType": "bool",
          "name": "",
          "type": "bool"
        }
      ],
      "stateMutability": "view",
      "type": "function"
    },
    {
      "inputs": [
        {
          "internalType": "string",
          "name": "username",
          "type": "string"
        },
        {
          "internalType": "string",
          "name": "userId",
          "type": "string"
        },
        {
          "internalType": "string",
          "name": "postId",
          "type": "string"
        },
        {
          "internalType": "address",
          "name": "promoterAddress",
          "type": "address"
        }
      ],
      "name": "approvePromoter",
      "outputs": [],
      "stateMutability": "nonpayable",
      "type": "function"
    },
    {
      "inputs": [],
      "name": "brandOwner",
      "outputs": [
        {
          "internalType": "address",
          "name": "",
          "type": "address"
        }
      ],
      "stateMutability": "view",
      "type": "function"
    },
    {
      "inputs": [],
      "name": "campaignName",
      "outputs": [
        {
          "internalType": "string",
          "name": "",
          "type": "string"
        }
      ],
      "stateMutability": "view",
      "type": "function"
    },
    {
      "inputs": [],
      "name": "funding",
      "outputs": [],
      "stateMutability": "payable",
      "type": "function"
    },
    {
      "inputs": [],
      "name": "fundingAmount",
      "outputs": [
        {
          "internalType": "uint256",
          "name": "",
          "type": "uint256"
        }
      ],
      "stateMutability": "view",
      "type": "function"
    },
    {
      "inputs": [],
      "name": "getBalance",
      "outputs": [
        {
          "internalType": "uint256",
          "name": "",
          "type": "uint256"
        }
      ],
      "stateMutability": "view",
      "type": "function"
    },
    {
      "inputs": [],
      "name": "getCampaingSummary",
      "outputs": [
        {
          "internalType": "string",
          "name": "",
          "type": "string"
        },
        {
          "internalType": "uint256",
          "name": "",
          "type": "uint256"
        },
        {
          "internalType": "uint256",
          "name": "",
          "type": "uint256"
        }
      ],
      "stateMutability": "view",
      "type": "function"
    },
    {
      "inputs": [],
      "name": "getPromoterCount",
      "outputs": [
        {
          "internalType": "uint256",
          "name": "",
          "type": "uint256"
        }
      ],
      "stateMutability": "view",
      "type": "function"
    },
    {
      "inputs": [
        {
          "internalType": "address",
          "name": "promoterAddress",
          "type": "address"
        }
      ],
      "name": "getPromoterSummary",
      "outputs": [
        {
          "internalType": "string",
          "name": "",
          "type": "string"
        },
        {
          "internalType": "string",
          "name": "",
          "type": "string"
        },
        {
          "internalType": "string",
          "name": "",
          "type": "string"
        }
      ],
      "stateMutability": "view",
      "type": "function"
    },
    {
      "inputs": [],
      "name": "promoterCount",
      "outputs": [
        {
          "internalType": "uint256",
          "name": "",
          "type": "uint256"
        }
      ],
      "stateMutability": "view",
      "type": "function"
    },
    {
      "inputs": [
        {
          "internalType": "address",
          "name": "",
          "type": "address"
        }
      ],
      "name": "promoterEarning",
      "outputs": [
        {
          "internalType": "uint256",
          "name": "",
          "type": "uint256"
        }
      ],
      "stateMutability": "view",
      "type": "function"
    },
    {
      "inputs": [
        {
          "internalType": "address",
          "name": "",
          "type": "address"
        }
      ],
      "name": "promoterIndex",
      "outputs": [
        {
          "internalType": "uint256",
          "name": "",
          "type": "uint256"
        }
      ],
      "stateMutability": "view",
      "type": "function"
    },
    {
      "inputs": [
        {
          "internalType": "uint256",
          "name": "",
          "type": "uint256"
        }
      ],
      "name": "promoters",
      "outputs": [
        {
          "internalType": "string",
          "name": "username",
          "type": "string"
        },
        {
          "internalType": "string",
          "name": "userId",
          "type": "string"
        },
        {
          "internalType": "string",
          "name": "postId",
          "type": "string"
        },
        {
          "internalType": "address",
          "name": "walletAddress",
          "type": "address"
        }
      ],
      "stateMutability": "view",
      "type": "function"
    },
    {
      "inputs": [
        {
          "internalType": "address",
          "name": "promoterAddress",
          "type": "address"
        }
      ],
      "name": "retrievePromoterEarning",
      "outputs": [
        {
          "internalType": "uint256",
          "name": "",
          "type": "uint256"
        }
      ],
      "stateMutability": "view",
      "type": "function"
    },
    {
      "inputs": [],
      "name": "rewardAmount",
      "outputs": [
        {
          "internalType": "uint256",
          "name": "",
          "type": "uint256"
        }
      ],
      "stateMutability": "view",
      "type": "function"
    },
    {
      "inputs": [
        {
          "internalType": "address",
          "name": "",
          "type": "address"
        }
      ],
      "name": "rewardCheck",
      "outputs": [
        {
          "internalType": "bool",
          "name": "",
          "type": "bool"
        }
      ],
      "stateMutability": "view",
      "type": "function"
    },
    {
      "inputs": [
        {
          "internalType": "address payable",
          "name": "promoterAddress",
          "type": "address"
        }
      ],
      "name": "sendReward",
      "outputs": [],
      "stateMutability": "payable",
      "type": "function"
    }
  ],
  "bytecode": "0x60806040523480156200001157600080fd5b5060405162001cf238038062001cf283398181016040528101906200003791906200032f565b336000806101000a81548173ffffffffffffffffffffffffffffffffffffffff021916908373ffffffffffffffffffffffffffffffffffffffff16021790555082600190805190602001906200008f929190620000a7565b5081600281905550806008819055505050506200040f565b828054620000b590620003d9565b90600052602060002090601f016020900481019282620000d9576000855562000125565b82601f10620000f457805160ff191683800117855562000125565b8280016001018555821562000125579182015b828111156200012457825182559160200191906001019062000107565b5b50905062000134919062000138565b5090565b5b808211156200015357600081600090555060010162000139565b5090565b6000604051905090565b600080fd5b600080fd5b600080fd5b600080fd5b6000601f19601f8301169050919050565b7f4e487b7100000000000000000000000000000000000000000000000000000000600052604160045260246000fd5b620001c08262000175565b810181811067ffffffffffffffff82111715620001e257620001e162000186565b5b80604052505050565b6000620001f762000157565b9050620002058282620001b5565b919050565b600067ffffffffffffffff82111562000228576200022762000186565b5b620002338262000175565b9050602081019050919050565b60005b838110156200026057808201518184015260208101905062000243565b8381111562000270576000848401525b50505050565b60006200028d62000287846200020a565b620001eb565b905082815260208101848484011115620002ac57620002ab62000170565b5b620002b984828562000240565b509392505050565b600082601f830112620002d957620002d86200016b565b5b8151620002eb84826020860162000276565b91505092915050565b6000819050919050565b6200030981620002f4565b81146200031557600080fd5b50565b6000815190506200032981620002fe565b92915050565b6000806000606084860312156200034b576200034a62000161565b5b600084015167ffffffffffffffff8111156200036c576200036b62000166565b5b6200037a86828701620002c1565b93505060206200038d8682870162000318565b9250506040620003a08682870162000318565b9150509250925092565b7f4e487b7100000000000000000000000000000000000000000000000000000000600052602260045260246000fd5b60006002820490506001821680620003f257607f821691505b60208210811415620004095762000408620003aa565b5b50919050565b6118d3806200041f6000396000f3fe6080604052600436106101095760003560e01c80639c7c338611610095578063d4d8bbae11610064578063d4d8bbae1461035c578063e6eeb7fd14610399578063f7b2a7be146103c2578063f916cd29146103ed578063fff490f21461042a57610109565b80639c7c3386146102cc5780639dabff251461030b578063cb4c86b714610327578063cea386dc1461033157610109565b80633ec6952a116100dc5780633ec6952a146101cc5780633f0bee32146101f75780633f18eab91461023757806349bb7f90146102745780635b72faa91461029f57610109565b806304a79c971461010e5780630724fda91461013957806312065fe01461016457806330558eaf1461018f575b600080fd5b34801561011a57600080fd5b50610123610467565b6040516101309190611045565b60405180910390f35b34801561014557600080fd5b5061014e61046d565b60405161015b91906110f9565b60405180910390f35b34801561017057600080fd5b506101796104fb565b6040516101869190611045565b60405180910390f35b34801561019b57600080fd5b506101b660048036038101906101b1919061118d565b610503565b6040516101c391906111d5565b60405180910390f35b3480156101d857600080fd5b506101e1610523565b6040516101ee91906111ff565b60405180910390f35b34801561020357600080fd5b5061021e60048036038101906102199190611246565b610547565b60405161022e9493929190611273565b60405180910390f35b34801561024357600080fd5b5061025e6004803603810190610259919061118d565b61073f565b60405161026b9190611045565b60405180910390f35b34801561028057600080fd5b50610289610757565b6040516102969190611045565b60405180910390f35b3480156102ab57600080fd5b506102b4610761565b6040516102c3939291906112cd565b60405180910390f35b3480156102d857600080fd5b506102f360048036038101906102ee919061118d565b610805565b6040516103029392919061130b565b60405180910390f35b61032560048036038101906103209190611395565b610aa9565b005b61032f610ccd565b005b34801561033d57600080fd5b50610346610cde565b6040516103539190611045565b60405180910390f35b34801561036857600080fd5b50610383600480360381019061037e919061118d565b610ce4565b6040516103909190611045565b60405180910390f35b3480156103a557600080fd5b506103c060048036038101906103bb91906114f7565b610d2d565b005b3480156103ce57600080fd5b506103d7610f4b565b6040516103e49190611045565b60405180910390f35b3480156103f957600080fd5b50610414600480360381019061040f919061118d565b610f51565b60405161042191906111d5565b60405180910390f35b34801561043657600080fd5b50610451600480360381019061044c919061118d565b610f71565b60405161045e9190611045565b60405180910390f35b60085481565b6001805461047a906115e1565b80601f01602080910402602001604051908101604052809291908181526020018280546104a6906115e1565b80156104f35780601f106104c8576101008083540402835291602001916104f3565b820191906000526020600020905b8154815290600101906020018083116104d657829003601f168201915b505050505081565b600047905090565b60046020528060005260406000206000915054906101000a900460ff1681565b60008054906101000a900473ffffffffffffffffffffffffffffffffffffffff1681565b6009818154811061055757600080fd5b906000526020600020906004020160009150905080600001805461057a906115e1565b80601f01602080910402602001604051908101604052809291908181526020018280546105a6906115e1565b80156105f35780601f106105c8576101008083540402835291602001916105f3565b820191906000526020600020905b8154815290600101906020018083116105d657829003601f168201915b505050505090806001018054610608906115e1565b80601f0160208091040260200160405190810160405280929190818152602001828054610634906115e1565b80156106815780601f1061065657610100808354040283529160200191610681565b820191906000526020600020905b81548152906001019060200180831161066457829003601f168201915b505050505090806002018054610696906115e1565b80601f01602080910402602001604051908101604052809291908181526020018280546106c2906115e1565b801561070f5780601f106106e45761010080835404028352916020019161070f565b820191906000526020600020905b8154815290600101906020018083116106f257829003601f168201915b5050505050908060030160009054906101000a900473ffffffffffffffffffffffffffffffffffffffff16905084565b60066020528060005260406000206000915090505481565b6000600754905090565b6060600080600160025460085482805461077a906115e1565b80601f01602080910402602001604051908101604052809291908181526020018280546107a6906115e1565b80156107f35780601f106107c8576101008083540402835291602001916107f3565b820191906000526020600020905b8154815290600101906020018083116107d657829003601f168201915b50505050509250925092509250909192565b60608060606000600660008673ffffffffffffffffffffffffffffffffffffffff1673ffffffffffffffffffffffffffffffffffffffff16815260200190815260200160002054905060006009828154811061086457610863611613565b5b906000526020600020906004020160405180608001604052908160008201805461088d906115e1565b80601f01602080910402602001604051908101604052809291908181526020018280546108b9906115e1565b80156109065780601f106108db57610100808354040283529160200191610906565b820191906000526020600020905b8154815290600101906020018083116108e957829003601f168201915b5050505050815260200160018201805461091f906115e1565b80601f016020809104026020016040519081016040528092919081815260200182805461094b906115e1565b80156109985780601f1061096d57610100808354040283529160200191610998565b820191906000526020600020905b81548152906001019060200180831161097b57829003601f168201915b505050505081526020016002820180546109b1906115e1565b80601f01602080910402602001604051908101604052809291908181526020018280546109dd906115e1565b8015610a2a5780601f106109ff57610100808354040283529160200191610a2a565b820191906000526020600020905b815481529060010190602001808311610a0d57829003601f168201915b505050505081526020016003820160009054906101000a900473ffffffffffffffffffffffffffffffffffffffff1673ffffffffffffffffffffffffffffffffffffffff1673ffffffffffffffffffffffffffffffffffffffff1681525050905080600001518160200151826040015194509450945050509193909250565b60011515600460008373ffffffffffffffffffffffffffffffffffffffff1673ffffffffffffffffffffffffffffffffffffffff16815260200190815260200160002060009054906101000a900460ff1615151415610b3d576040517f08c379a0000000000000000000000000000000000000000000000000000000008152600401610b34906116b4565b60405180910390fd5b6002543414610b81576040517f08c379a0000000000000000000000000000000000000000000000000000000008152600401610b7890611720565b60405180910390fd5b6001600460008373ffffffffffffffffffffffffffffffffffffffff1673ffffffffffffffffffffffffffffffffffffffff16815260200190815260200160002060006101000a81548160ff02191690831515021790555060008173ffffffffffffffffffffffffffffffffffffffff1634604051610bff90611797565b60006040518083038185875af1925050503d8060008114610c3c576040519150601f19603f3d011682016040523d82523d6000602084013e610c41565b606091505b5050905034600560008473ffffffffffffffffffffffffffffffffffffffff1673ffffffffffffffffffffffffffffffffffffffff1681526020019081526020016000208190555080610cc9576040517f08c379a0000000000000000000000000000000000000000000000000000000008152600401610cc0906117f8565b60405180910390fd5b5050565b600854341015610cdc57600080fd5b565b60075481565b6000600560008373ffffffffffffffffffffffffffffffffffffffff1673ffffffffffffffffffffffffffffffffffffffff168152602001908152602001600020549050919050565b60008054906101000a900473ffffffffffffffffffffffffffffffffffffffff1673ffffffffffffffffffffffffffffffffffffffff163373ffffffffffffffffffffffffffffffffffffffff1614610d8557600080fd5b600060405180608001604052808681526020018581526020018481526020018373ffffffffffffffffffffffffffffffffffffffff16815250905060098190806001815401808255809150506001900390600052602060002090600402016000909190919091506000820151816000019080519060200190610e08929190610f89565b506020820151816001019080519060200190610e25929190610f89565b506040820151816002019080519060200190610e42929190610f89565b5060608201518160030160006101000a81548173ffffffffffffffffffffffffffffffffffffffff021916908373ffffffffffffffffffffffffffffffffffffffff1602179055505050600754600660008473ffffffffffffffffffffffffffffffffffffffff1673ffffffffffffffffffffffffffffffffffffffff16815260200190815260200160002081905550600160076000828254610ee59190611847565b925050819055506000600460008473ffffffffffffffffffffffffffffffffffffffff1673ffffffffffffffffffffffffffffffffffffffff16815260200190815260200160002060006101000a81548160ff0219169083151502179055505050505050565b60025481565b60036020528060005260406000206000915054906101000a900460ff1681565b60056020528060005260406000206000915090505481565b828054610f95906115e1565b90600052602060002090601f016020900481019282610fb75760008555610ffe565b82601f10610fd057805160ff1916838001178555610ffe565b82800160010185558215610ffe579182015b82811115610ffd578251825591602001919060010190610fe2565b5b50905061100b919061100f565b5090565b5b80821115611028576000816000905550600101611010565b5090565b6000819050919050565b61103f8161102c565b82525050565b600060208201905061105a6000830184611036565b92915050565b600081519050919050565b600082825260208201905092915050565b60005b8381101561109a57808201518184015260208101905061107f565b838111156110a9576000848401525b50505050565b6000601f19601f8301169050919050565b60006110cb82611060565b6110d5818561106b565b93506110e581856020860161107c565b6110ee816110af565b840191505092915050565b6000602082019050818103600083015261111381846110c0565b905092915050565b6000604051905090565b600080fd5b600080fd5b600073ffffffffffffffffffffffffffffffffffffffff82169050919050565b600061115a8261112f565b9050919050565b61116a8161114f565b811461117557600080fd5b50565b60008135905061118781611161565b92915050565b6000602082840312156111a3576111a2611125565b5b60006111b184828501611178565b91505092915050565b60008115159050919050565b6111cf816111ba565b82525050565b60006020820190506111ea60008301846111c6565b92915050565b6111f98161114f565b82525050565b600060208201905061121460008301846111f0565b92915050565b6112238161102c565b811461122e57600080fd5b50565b6000813590506112408161121a565b92915050565b60006020828403121561125c5761125b611125565b5b600061126a84828501611231565b91505092915050565b6000608082019050818103600083015261128d81876110c0565b905081810360208301526112a181866110c0565b905081810360408301526112b581856110c0565b90506112c460608301846111f0565b95945050505050565b600060608201905081810360008301526112e781866110c0565b90506112f66020830185611036565b6113036040830184611036565b949350505050565b6000606082019050818103600083015261132581866110c0565b9050818103602083015261133981856110c0565b9050818103604083015261134d81846110c0565b9050949350505050565b60006113628261112f565b9050919050565b61137281611357565b811461137d57600080fd5b50565b60008135905061138f81611369565b92915050565b6000602082840312156113ab576113aa611125565b5b60006113b984828501611380565b91505092915050565b600080fd5b600080fd5b7f4e487b7100000000000000000000000000000000000000000000000000000000600052604160045260246000fd5b611404826110af565b810181811067ffffffffffffffff82111715611423576114226113cc565b5b80604052505050565b600061143661111b565b905061144282826113fb565b919050565b600067ffffffffffffffff821115611462576114616113cc565b5b61146b826110af565b9050602081019050919050565b82818337600083830152505050565b600061149a61149584611447565b61142c565b9050828152602081018484840111156114b6576114b56113c7565b5b6114c1848285611478565b509392505050565b600082601f8301126114de576114dd6113c2565b5b81356114ee848260208601611487565b91505092915050565b6000806000806080858703121561151157611510611125565b5b600085013567ffffffffffffffff81111561152f5761152e61112a565b5b61153b878288016114c9565b945050602085013567ffffffffffffffff81111561155c5761155b61112a565b5b611568878288016114c9565b935050604085013567ffffffffffffffff8111156115895761158861112a565b5b611595878288016114c9565b92505060606115a687828801611178565b91505092959194509250565b7f4e487b7100000000000000000000000000000000000000000000000000000000600052602260045260246000fd5b600060028204905060018216806115f957607f821691505b6020821081141561160d5761160c6115b2565b5b50919050565b7f4e487b7100000000000000000000000000000000000000000000000000000000600052603260045260246000fd5b7f50726f6d6f74657220616c72656164792072656365697665642072657761726460008201527f2100000000000000000000000000000000000000000000000000000000000000602082015250565b600061169e60218361106b565b91506116a982611642565b604082019050919050565b600060208201905081810360008301526116cd81611691565b9050919050565b7f52657761726420616d6f756e7420646f6573206e6f74206d6174636821000000600082015250565b600061170a601d8361106b565b9150611715826116d4565b602082019050919050565b60006020820190508181036000830152611739816116fd565b9050919050565b600081905092915050565b7f53656e64696e6720726577617264000000000000000000000000000000000000600082015250565b6000611781600e83611740565b915061178c8261174b565b600e82019050919050565b60006117a282611774565b9150819050919050565b7f4661696c656420746f2073656e64204574686572000000000000000000000000600082015250565b60006117e260148361106b565b91506117ed826117ac565b602082019050919050565b60006020820190508181036000830152611811816117d5565b9050919050565b7f4e487b7100000000000000000000000000000000000000000000000000000000600052601160045260246000fd5b60006118528261102c565b915061185d8361102c565b9250827fffffffffffffffffffffffffffffffffffffffffffffffffffffffffffffffff0382111561189257611891611818565b5b82820190509291505056fea2646970667358221220895595c17ed1ca1a63a8a532df39ec73f948357f3352ce90eb29fccc7bc259ae64736f6c634300080a0033",
  "linkReferences": {},
  "deployedLinkReferences": {}
}