{
  "_format": "hh-sol-artifact-1",
  "contractName": "Campaign",
  "sourceName": "contracts/Campaign.sol",
  "abi": [
    {
      "inputs": [
        {
          "internalType": "address",
          "name": "_brandOwner",
          "type": "address"
        },
        {
          "internalType": "string",
          "name": "_campaignName",
          "type": "string"
        },
        {
          "internalType": "uint256",
          "name": "_rewardAmount",
          "type": "uint256"
        },
        {
          "internalType": "uint256",
          "name": "_fundingAmount",
          "type": "uint256"
        },
        {
          "internalType": "uint256",
          "name": "_dailyLimit",
          "type": "uint256"
        },
        {
          "internalType": "uint256",
          "name": "_duration",
          "type": "uint256"
        }
      ],
      "stateMutability": "nonpayable",
      "type": "constructor"
    },
    {
      "inputs": [
        {
          "internalType": "address",
          "name": "",
          "type": "address"
        }
      ],
      "name": "allowedPromoter",
      "outputs": [
        {
          "internalType": "bool",
          "name": "",
          "type": "bool"
        }
      ],
      "stateMutability": "view",
      "type": "function"
    },
    {
      "inputs": [
        {
          "internalType": "string",
          "name": "username",
          "type": "string"
        },
        {
          "internalType": "string",
          "name": "userId",
          "type": "string"
        },
        {
          "internalType": "string",
          "name": "postId",
          "type": "string"
        },
        {
          "internalType": "address",
          "name": "promoterAddress",
          "type": "address"
        }
      ],
      "name": "approvePromoter",
      "outputs": [],
      "stateMutability": "nonpayable",
      "type": "function"
    },
    {
      "inputs": [],
      "name": "brandOwner",
      "outputs": [
        {
          "internalType": "address",
          "name": "",
          "type": "address"
        }
      ],
      "stateMutability": "view",
      "type": "function"
    },
    {
      "inputs": [],
      "name": "campaignName",
      "outputs": [
        {
          "internalType": "string",
          "name": "",
          "type": "string"
        }
      ],
      "stateMutability": "view",
      "type": "function"
    },
    {
      "inputs": [],
      "name": "dailyLimit",
      "outputs": [
        {
          "internalType": "uint256",
          "name": "",
          "type": "uint256"
        }
      ],
      "stateMutability": "view",
      "type": "function"
    },
    {
      "inputs": [],
      "name": "deadline",
      "outputs": [
        {
          "internalType": "uint256",
          "name": "",
          "type": "uint256"
        }
      ],
      "stateMutability": "view",
      "type": "function"
    },
    {
      "inputs": [],
      "name": "duration",
      "outputs": [
        {
          "internalType": "uint256",
          "name": "",
          "type": "uint256"
        }
      ],
      "stateMutability": "view",
      "type": "function"
    },
    {
      "inputs": [],
      "name": "funding",
      "outputs": [],
      "stateMutability": "payable",
      "type": "function"
    },
    {
      "inputs": [],
      "name": "fundingAmount",
      "outputs": [
        {
          "internalType": "uint256",
          "name": "",
          "type": "uint256"
        }
      ],
      "stateMutability": "view",
      "type": "function"
    },
    {
      "inputs": [],
      "name": "getBalance",
      "outputs": [
        {
          "internalType": "uint256",
          "name": "",
          "type": "uint256"
        }
      ],
      "stateMutability": "view",
      "type": "function"
    },
    {
      "inputs": [],
      "name": "getCampaignSummary",
      "outputs": [
        {
          "internalType": "string",
          "name": "",
          "type": "string"
        },
        {
          "internalType": "uint256",
          "name": "",
          "type": "uint256"
        },
        {
          "internalType": "uint256",
          "name": "",
          "type": "uint256"
        },
        {
          "internalType": "uint256",
          "name": "",
          "type": "uint256"
        },
        {
          "internalType": "uint256",
          "name": "",
          "type": "uint256"
        }
      ],
      "stateMutability": "view",
      "type": "function"
    },
    {
      "inputs": [],
      "name": "getDeadline",
      "outputs": [
        {
          "internalType": "uint256",
          "name": "",
          "type": "uint256"
        }
      ],
      "stateMutability": "view",
      "type": "function"
    },
    {
      "inputs": [],
      "name": "getPromoterCount",
      "outputs": [
        {
          "internalType": "uint256",
          "name": "",
          "type": "uint256"
        }
      ],
      "stateMutability": "view",
      "type": "function"
    },
    {
      "inputs": [
        {
          "internalType": "address",
          "name": "promoterAddress",
          "type": "address"
        }
      ],
      "name": "getPromoterSummary",
      "outputs": [
        {
          "internalType": "string",
          "name": "",
          "type": "string"
        },
        {
          "internalType": "string",
          "name": "",
          "type": "string"
        },
        {
          "internalType": "string",
          "name": "",
          "type": "string"
        }
      ],
      "stateMutability": "view",
      "type": "function"
    },
    {
      "inputs": [],
      "name": "promoterCount",
      "outputs": [
        {
          "internalType": "uint256",
          "name": "",
          "type": "uint256"
        }
      ],
      "stateMutability": "view",
      "type": "function"
    },
    {
      "inputs": [
        {
          "internalType": "address",
          "name": "",
          "type": "address"
        }
      ],
      "name": "promoterEarning",
      "outputs": [
        {
          "internalType": "uint256",
          "name": "",
          "type": "uint256"
        }
      ],
      "stateMutability": "view",
      "type": "function"
    },
    {
      "inputs": [
        {
          "internalType": "address",
          "name": "",
          "type": "address"
        }
      ],
      "name": "promoterIndex",
      "outputs": [
        {
          "internalType": "uint256",
          "name": "",
          "type": "uint256"
        }
      ],
      "stateMutability": "view",
      "type": "function"
    },
    {
      "inputs": [
        {
          "internalType": "uint256",
          "name": "",
          "type": "uint256"
        }
      ],
      "name": "promoters",
      "outputs": [
        {
          "internalType": "string",
          "name": "username",
          "type": "string"
        },
        {
          "internalType": "string",
          "name": "userId",
          "type": "string"
        },
        {
          "internalType": "string",
          "name": "postId",
          "type": "string"
        },
        {
          "internalType": "address",
          "name": "walletAddress",
          "type": "address"
        }
      ],
      "stateMutability": "view",
      "type": "function"
    },
    {
      "inputs": [
        {
          "internalType": "address",
          "name": "promoterAddress",
          "type": "address"
        }
      ],
      "name": "retrievePromoterEarning",
      "outputs": [
        {
          "internalType": "uint256",
          "name": "",
          "type": "uint256"
        }
      ],
      "stateMutability": "view",
      "type": "function"
    },
    {
      "inputs": [],
      "name": "rewardAmount",
      "outputs": [
        {
          "internalType": "uint256",
          "name": "",
          "type": "uint256"
        }
      ],
      "stateMutability": "view",
      "type": "function"
    },
    {
      "inputs": [
        {
          "internalType": "address",
          "name": "",
          "type": "address"
        }
      ],
      "name": "rewardCheck",
      "outputs": [
        {
          "internalType": "bool",
          "name": "",
          "type": "bool"
        }
      ],
      "stateMutability": "view",
      "type": "function"
    },
    {
      "inputs": [
        {
          "internalType": "address payable",
          "name": "promoterAddress",
          "type": "address"
        }
      ],
      "name": "sendReward",
      "outputs": [],
      "stateMutability": "payable",
      "type": "function"
    }
  ],
  "bytecode": "0x60806040523480156200001157600080fd5b5060405162002060380380620020608339818101604052810190620000379190620003d9565b856000806101000a81548173ffffffffffffffffffffffffffffffffffffffff021916908373ffffffffffffffffffffffffffffffffffffffff16021790555084600190805190602001906200008f929190620000ec565b5083600281905550826008819055508160098190555080600a819055506201518081620000bd9190620004c3565b6201518042620000ce919062000553565b620000da91906200058b565b600b819055505050505050506200064d565b828054620000fa9062000617565b90600052602060002090601f0160209004810192826200011e57600085556200016a565b82601f106200013957805160ff19168380011785556200016a565b828001600101855582156200016a579182015b82811115620001695782518255916020019190600101906200014c565b5b5090506200017991906200017d565b5090565b5b80821115620001985760008160009055506001016200017e565b5090565b6000604051905090565b600080fd5b600080fd5b600073ffffffffffffffffffffffffffffffffffffffff82169050919050565b6000620001dd82620001b0565b9050919050565b620001ef81620001d0565b8114620001fb57600080fd5b50565b6000815190506200020f81620001e4565b92915050565b600080fd5b600080fd5b6000601f19601f8301169050919050565b7f4e487b7100000000000000000000000000000000000000000000000000000000600052604160045260246000fd5b6200026a826200021f565b810181811067ffffffffffffffff821117156200028c576200028b62000230565b5b80604052505050565b6000620002a16200019c565b9050620002af82826200025f565b919050565b600067ffffffffffffffff821115620002d257620002d162000230565b5b620002dd826200021f565b9050602081019050919050565b60005b838110156200030a578082015181840152602081019050620002ed565b838111156200031a576000848401525b50505050565b6000620003376200033184620002b4565b62000295565b9050828152602081018484840111156200035657620003556200021a565b5b62000363848285620002ea565b509392505050565b600082601f83011262000383576200038262000215565b5b81516200039584826020860162000320565b91505092915050565b6000819050919050565b620003b3816200039e565b8114620003bf57600080fd5b50565b600081519050620003d381620003a8565b92915050565b60008060008060008060c08789031215620003f957620003f8620001a6565b5b60006200040989828a01620001fe565b965050602087015167ffffffffffffffff8111156200042d576200042c620001ab565b5b6200043b89828a016200036b565b95505060406200044e89828a01620003c2565b94505060606200046189828a01620003c2565b93505060806200047489828a01620003c2565b92505060a06200048789828a01620003c2565b9150509295509295509295565b7f4e487b7100000000000000000000000000000000000000000000000000000000600052601160045260246000fd5b6000620004d0826200039e565b9150620004dd836200039e565b9250817fffffffffffffffffffffffffffffffffffffffffffffffffffffffffffffffff048311821515161562000519576200051862000494565b5b828202905092915050565b7f4e487b7100000000000000000000000000000000000000000000000000000000600052601260045260246000fd5b600062000560826200039e565b91506200056d836200039e565b92508262000580576200057f62000524565b5b828204905092915050565b600062000598826200039e565b9150620005a5836200039e565b9250827fffffffffffffffffffffffffffffffffffffffffffffffffffffffffffffffff03821115620005dd57620005dc62000494565b5b828201905092915050565b7f4e487b7100000000000000000000000000000000000000000000000000000000600052602260045260246000fd5b600060028204905060018216806200063057607f821691505b60208210811415620006475762000646620005e8565b5b50919050565b611a03806200065d6000396000f3fe6080604052600436106101355760003560e01c806367eeba0c116100ab578063cea386dc1161006f578063cea386dc1461040b578063d4d8bbae14610436578063e6eeb7fd14610473578063f7b2a7be1461049c578063f916cd29146104c7578063fff490f21461050457610135565b806367eeba0c1461034c5780639c7c3386146103775780639dabff25146103b6578063a00c96d7146103d2578063cb4c86b71461040157610135565b806330558eaf116100fd57806330558eaf146102115780633ec6952a1461024e5780633f0bee32146102795780633f18eab9146102b957806349bb7f90146102f65780635f8d96de1461032157610135565b806304a79c971461013a5780630724fda9146101655780630fb5a6b41461019057806312065fe0146101bb57806329dcb0cf146101e6575b600080fd5b34801561014657600080fd5b5061014f610541565b60405161015c9190611159565b60405180910390f35b34801561017157600080fd5b5061017a610547565b604051610187919061120d565b60405180910390f35b34801561019c57600080fd5b506101a56105d5565b6040516101b29190611159565b60405180910390f35b3480156101c757600080fd5b506101d06105db565b6040516101dd9190611159565b60405180910390f35b3480156101f257600080fd5b506101fb6105e3565b6040516102089190611159565b60405180910390f35b34801561021d57600080fd5b50610238600480360381019061023391906112a1565b6105e9565b60405161024591906112e9565b60405180910390f35b34801561025a57600080fd5b50610263610609565b6040516102709190611313565b60405180910390f35b34801561028557600080fd5b506102a0600480360381019061029b919061135a565b61062d565b6040516102b09493929190611387565b60405180910390f35b3480156102c557600080fd5b506102e060048036038101906102db91906112a1565b610825565b6040516102ed9190611159565b60405180910390f35b34801561030257600080fd5b5061030b61083d565b6040516103189190611159565b60405180910390f35b34801561032d57600080fd5b50610336610847565b6040516103439190611159565b60405180910390f35b34801561035857600080fd5b50610361610851565b60405161036e9190611159565b60405180910390f35b34801561038357600080fd5b5061039e600480360381019061039991906112a1565b610857565b6040516103ad939291906113e1565b60405180910390f35b6103d060048036038101906103cb919061146b565b610afb565b005b3480156103de57600080fd5b506103e7610d2e565b6040516103f8959493929190611498565b60405180910390f35b610409610de1565b005b34801561041757600080fd5b50610420610df2565b60405161042d9190611159565b60405180910390f35b34801561044257600080fd5b5061045d600480360381019061045891906112a1565b610df8565b60405161046a9190611159565b60405180910390f35b34801561047f57600080fd5b5061049a60048036038101906104959190611627565b610e41565b005b3480156104a857600080fd5b506104b161105f565b6040516104be9190611159565b60405180910390f35b3480156104d357600080fd5b506104ee60048036038101906104e991906112a1565b611065565b6040516104fb91906112e9565b60405180910390f35b34801561051057600080fd5b5061052b600480360381019061052691906112a1565b611085565b6040516105389190611159565b60405180910390f35b60085481565b6001805461055490611711565b80601f016020809104026020016040519081016040528092919081815260200182805461058090611711565b80156105cd5780601f106105a2576101008083540402835291602001916105cd565b820191906000526020600020905b8154815290600101906020018083116105b057829003601f168201915b505050505081565b600a5481565b600047905090565b600b5481565b60046020528060005260406000206000915054906101000a900460ff1681565b60008054906101000a900473ffffffffffffffffffffffffffffffffffffffff1681565b600c818154811061063d57600080fd5b906000526020600020906004020160009150905080600001805461066090611711565b80601f016020809104026020016040519081016040528092919081815260200182805461068c90611711565b80156106d95780601f106106ae576101008083540402835291602001916106d9565b820191906000526020600020905b8154815290600101906020018083116106bc57829003601f168201915b5050505050908060010180546106ee90611711565b80601f016020809104026020016040519081016040528092919081815260200182805461071a90611711565b80156107675780601f1061073c57610100808354040283529160200191610767565b820191906000526020600020905b81548152906001019060200180831161074a57829003601f168201915b50505050509080600201805461077c90611711565b80601f01602080910402602001604051908101604052809291908181526020018280546107a890611711565b80156107f55780601f106107ca576101008083540402835291602001916107f5565b820191906000526020600020905b8154815290600101906020018083116107d857829003601f168201915b5050505050908060030160009054906101000a900473ffffffffffffffffffffffffffffffffffffffff16905084565b60066020528060005260406000206000915090505481565b6000600754905090565b6000600b54905090565b60095481565b60608060606000600660008673ffffffffffffffffffffffffffffffffffffffff1673ffffffffffffffffffffffffffffffffffffffff1681526020019081526020016000205490506000600c82815481106108b6576108b5611743565b5b90600052602060002090600402016040518060800160405290816000820180546108df90611711565b80601f016020809104026020016040519081016040528092919081815260200182805461090b90611711565b80156109585780601f1061092d57610100808354040283529160200191610958565b820191906000526020600020905b81548152906001019060200180831161093b57829003601f168201915b5050505050815260200160018201805461097190611711565b80601f016020809104026020016040519081016040528092919081815260200182805461099d90611711565b80156109ea5780601f106109bf576101008083540402835291602001916109ea565b820191906000526020600020905b8154815290600101906020018083116109cd57829003601f168201915b50505050508152602001600282018054610a0390611711565b80601f0160208091040260200160405190810160405280929190818152602001828054610a2f90611711565b8015610a7c5780601f10610a5157610100808354040283529160200191610a7c565b820191906000526020600020905b815481529060010190602001808311610a5f57829003601f168201915b505050505081526020016003820160009054906101000a900473ffffffffffffffffffffffffffffffffffffffff1673ffffffffffffffffffffffffffffffffffffffff1673ffffffffffffffffffffffffffffffffffffffff1681525050905080600001518160200151826040015194509450945050509193909250565b60011515600460008373ffffffffffffffffffffffffffffffffffffffff1673ffffffffffffffffffffffffffffffffffffffff16815260200190815260200160002060009054906101000a900460ff1615151415610b8f576040517f08c379a0000000000000000000000000000000000000000000000000000000008152600401610b86906117e4565b60405180910390fd5b6002543414610bd3576040517f08c379a0000000000000000000000000000000000000000000000000000000008152600401610bca90611850565b60405180910390fd5b600b54421115610be257600080fd5b6001600460008373ffffffffffffffffffffffffffffffffffffffff1673ffffffffffffffffffffffffffffffffffffffff16815260200190815260200160002060006101000a81548160ff02191690831515021790555060008173ffffffffffffffffffffffffffffffffffffffff1634604051610c60906118c7565b60006040518083038185875af1925050503d8060008114610c9d576040519150601f19603f3d011682016040523d82523d6000602084013e610ca2565b606091505b5050905034600560008473ffffffffffffffffffffffffffffffffffffffff1673ffffffffffffffffffffffffffffffffffffffff1681526020019081526020016000208190555080610d2a576040517f08c379a0000000000000000000000000000000000000000000000000000000008152600401610d2190611928565b60405180910390fd5b5050565b60606000806000806001600254600854600954600a54848054610d5090611711565b80601f0160208091040260200160405190810160405280929190818152602001828054610d7c90611711565b8015610dc95780601f10610d9e57610100808354040283529160200191610dc9565b820191906000526020600020905b815481529060010190602001808311610dac57829003601f168201915b50505050509450945094509450945094509091929394565b600854341015610df057600080fd5b565b60075481565b6000600560008373ffffffffffffffffffffffffffffffffffffffff1673ffffffffffffffffffffffffffffffffffffffff168152602001908152602001600020549050919050565b60008054906101000a900473ffffffffffffffffffffffffffffffffffffffff1673ffffffffffffffffffffffffffffffffffffffff163373ffffffffffffffffffffffffffffffffffffffff1614610e9957600080fd5b600060405180608001604052808681526020018581526020018481526020018373ffffffffffffffffffffffffffffffffffffffff168152509050600c8190806001815401808255809150506001900390600052602060002090600402016000909190919091506000820151816000019080519060200190610f1c92919061109d565b506020820151816001019080519060200190610f3992919061109d565b506040820151816002019080519060200190610f5692919061109d565b5060608201518160030160006101000a81548173ffffffffffffffffffffffffffffffffffffffff021916908373ffffffffffffffffffffffffffffffffffffffff1602179055505050600754600660008473ffffffffffffffffffffffffffffffffffffffff1673ffffffffffffffffffffffffffffffffffffffff16815260200190815260200160002081905550600160076000828254610ff99190611977565b925050819055506000600460008473ffffffffffffffffffffffffffffffffffffffff1673ffffffffffffffffffffffffffffffffffffffff16815260200190815260200160002060006101000a81548160ff0219169083151502179055505050505050565b60025481565b60036020528060005260406000206000915054906101000a900460ff1681565b60056020528060005260406000206000915090505481565b8280546110a990611711565b90600052602060002090601f0160209004810192826110cb5760008555611112565b82601f106110e457805160ff1916838001178555611112565b82800160010185558215611112579182015b828111156111115782518255916020019190600101906110f6565b5b50905061111f9190611123565b5090565b5b8082111561113c576000816000905550600101611124565b5090565b6000819050919050565b61115381611140565b82525050565b600060208201905061116e600083018461114a565b92915050565b600081519050919050565b600082825260208201905092915050565b60005b838110156111ae578082015181840152602081019050611193565b838111156111bd576000848401525b50505050565b6000601f19601f8301169050919050565b60006111df82611174565b6111e9818561117f565b93506111f9818560208601611190565b611202816111c3565b840191505092915050565b6000602082019050818103600083015261122781846111d4565b905092915050565b6000604051905090565b600080fd5b600080fd5b600073ffffffffffffffffffffffffffffffffffffffff82169050919050565b600061126e82611243565b9050919050565b61127e81611263565b811461128957600080fd5b50565b60008135905061129b81611275565b92915050565b6000602082840312156112b7576112b6611239565b5b60006112c58482850161128c565b91505092915050565b60008115159050919050565b6112e3816112ce565b82525050565b60006020820190506112fe60008301846112da565b92915050565b61130d81611263565b82525050565b60006020820190506113286000830184611304565b92915050565b61133781611140565b811461134257600080fd5b50565b6000813590506113548161132e565b92915050565b6000602082840312156113705761136f611239565b5b600061137e84828501611345565b91505092915050565b600060808201905081810360008301526113a181876111d4565b905081810360208301526113b581866111d4565b905081810360408301526113c981856111d4565b90506113d86060830184611304565b95945050505050565b600060608201905081810360008301526113fb81866111d4565b9050818103602083015261140f81856111d4565b9050818103604083015261142381846111d4565b9050949350505050565b600061143882611243565b9050919050565b6114488161142d565b811461145357600080fd5b50565b6000813590506114658161143f565b92915050565b60006020828403121561148157611480611239565b5b600061148f84828501611456565b91505092915050565b600060a08201905081810360008301526114b281886111d4565b90506114c1602083018761114a565b6114ce604083018661114a565b6114db606083018561114a565b6114e8608083018461114a565b9695505050505050565b600080fd5b600080fd5b7f4e487b7100000000000000000000000000000000000000000000000000000000600052604160045260246000fd5b611534826111c3565b810181811067ffffffffffffffff82111715611553576115526114fc565b5b80604052505050565b600061156661122f565b9050611572828261152b565b919050565b600067ffffffffffffffff821115611592576115916114fc565b5b61159b826111c3565b9050602081019050919050565b82818337600083830152505050565b60006115ca6115c584611577565b61155c565b9050828152602081018484840111156115e6576115e56114f7565b5b6115f18482856115a8565b509392505050565b600082601f83011261160e5761160d6114f2565b5b813561161e8482602086016115b7565b91505092915050565b6000806000806080858703121561164157611640611239565b5b600085013567ffffffffffffffff81111561165f5761165e61123e565b5b61166b878288016115f9565b945050602085013567ffffffffffffffff81111561168c5761168b61123e565b5b611698878288016115f9565b935050604085013567ffffffffffffffff8111156116b9576116b861123e565b5b6116c5878288016115f9565b92505060606116d68782880161128c565b91505092959194509250565b7f4e487b7100000000000000000000000000000000000000000000000000000000600052602260045260246000fd5b6000600282049050600182168061172957607f821691505b6020821081141561173d5761173c6116e2565b5b50919050565b7f4e487b7100000000000000000000000000000000000000000000000000000000600052603260045260246000fd5b7f50726f6d6f74657220616c72656164792072656365697665642072657761726460008201527f2100000000000000000000000000000000000000000000000000000000000000602082015250565b60006117ce60218361117f565b91506117d982611772565b604082019050919050565b600060208201905081810360008301526117fd816117c1565b9050919050565b7f52657761726420616d6f756e7420646f6573206e6f74206d6174636821000000600082015250565b600061183a601d8361117f565b915061184582611804565b602082019050919050565b600060208201905081810360008301526118698161182d565b9050919050565b600081905092915050565b7f53656e64696e6720726577617264000000000000000000000000000000000000600082015250565b60006118b1600e83611870565b91506118bc8261187b565b600e82019050919050565b60006118d2826118a4565b9150819050919050565b7f4661696c656420746f2073656e64204574686572000000000000000000000000600082015250565b600061191260148361117f565b915061191d826118dc565b602082019050919050565b6000602082019050818103600083015261194181611905565b9050919050565b7f4e487b7100000000000000000000000000000000000000000000000000000000600052601160045260246000fd5b600061198282611140565b915061198d83611140565b9250827fffffffffffffffffffffffffffffffffffffffffffffffffffffffffffffffff038211156119c2576119c1611948565b5b82820190509291505056fea2646970667358221220234bc4d38ee8facff4b44a95a83f430b97dcaa6a69750e1c720ad24d958e9bfa64736f6c634300080a0033",
  "linkReferences": {},
  "deployedLinkReferences": {}
}