{
  "_format": "hh-sol-artifact-1",
  "contractName": "Factory",
  "sourceName": "contracts/Campaign.sol",
  "abi": [
    {
      "inputs": [],
      "name": "campaignCount",
      "outputs": [
        {
          "internalType": "uint256",
          "name": "",
          "type": "uint256"
        }
      ],
      "stateMutability": "view",
      "type": "function"
    },
    {
      "inputs": [
        {
          "internalType": "address",
          "name": "ownerAddress",
          "type": "address"
        },
        {
          "internalType": "string",
          "name": "campaignName",
          "type": "string"
        },
        {
          "internalType": "uint256",
          "name": "rewardAmount",
          "type": "uint256"
        },
        {
          "internalType": "uint256",
          "name": "fundingAmount",
          "type": "uint256"
        },
        {
          "internalType": "uint256",
          "name": "dailyLimit",
          "type": "uint256"
        },
        {
          "internalType": "uint256",
          "name": "duration",
          "type": "uint256"
        }
      ],
      "name": "createCampaign",
      "outputs": [
        {
          "internalType": "address",
          "name": "",
          "type": "address"
        }
      ],
      "stateMutability": "nonpayable",
      "type": "function"
    },
    {
      "inputs": [
        {
          "internalType": "uint256",
          "name": "",
          "type": "uint256"
        }
      ],
      "name": "deployedCampaigns",
      "outputs": [
        {
          "internalType": "address",
          "name": "",
          "type": "address"
        }
      ],
      "stateMutability": "view",
      "type": "function"
    },
    {
      "inputs": [],
      "name": "getBalance",
      "outputs": [
        {
          "internalType": "uint256",
          "name": "",
          "type": "uint256"
        }
      ],
      "stateMutability": "view",
      "type": "function"
    },
    {
      "inputs": [
        {
          "internalType": "uint256",
          "name": "index",
          "type": "uint256"
        }
      ],
      "name": "getCampaignAddress",
      "outputs": [
        {
          "internalType": "address",
          "name": "",
          "type": "address"
        }
      ],
      "stateMutability": "view",
      "type": "function"
    },
    {
      "inputs": [],
      "name": "getDeployedCampaigns",
      "outputs": [
        {
          "internalType": "address[]",
          "name": "",
          "type": "address[]"
        }
      ],
      "stateMutability": "view",
      "type": "function"
    },
    {
      "inputs": [],
      "name": "getTotalCampaigns",
      "outputs": [
        {
          "internalType": "uint256",
          "name": "",
          "type": "uint256"
        }
      ],
      "stateMutability": "view",
      "type": "function"
    }
  ],
  "bytecode": "0x608060405234801561001057600080fd5b50612a85806100206000396000f3fe60806040523480156200001157600080fd5b5060043610620000885760003560e01c80634acb9d4f11620000635780634acb9d4f14620001075780637274e30d1462000129578063e1231ec5146200014b578063f140f95114620001815762000088565b806312065fe0146200008d57806316f43dd414620000af578063339d50a514620000d1575b600080fd5b62000097620001b7565b604051620000a691906200042c565b60405180910390f35b620000b9620001bf565b604051620000c891906200042c565b60405180910390f35b620000ef6004803603810190620000e991906200048e565b620001c9565b604051620000fe919062000505565b60405180910390f35b6200011162000209565b604051620001209190620005f0565b60405180910390f35b6200013362000299565b6040516200014291906200042c565b60405180910390f35b6200016960048036038101906200016391906200048e565b6200029f565b60405162000178919062000505565b60405180910390f35b6200019f6004803603810190620001999190620007a7565b620002e9565b604051620001ae919062000505565b60405180910390f35b600047905090565b6000600154905090565b60008181548110620001da57600080fd5b906000526020600020016000915054906101000a900473ffffffffffffffffffffffffffffffffffffffff1681565b606060008054806020026020016040519081016040528092919081815260200182805480156200028f57602002820191906000526020600020905b8160009054906101000a900473ffffffffffffffffffffffffffffffffffffffff1673ffffffffffffffffffffffffffffffffffffffff168152602001906001019080831162000244575b5050505050905090565b60015481565b6000808281548110620002b757620002b662000862565b5b9060005260206000200160009054906101000a900473ffffffffffffffffffffffffffffffffffffffff169050919050565b600080878787878787604051620003009062000403565b620003119695949392919062000924565b604051809103906000f0801580156200032e573d6000803e3d6000fd5b5090506000819080600181540180825580915050600190039060005260206000200160009091909190916101000a81548173ffffffffffffffffffffffffffffffffffffffff021916908373ffffffffffffffffffffffffffffffffffffffff160217905550600154600260008373ffffffffffffffffffffffffffffffffffffffff1673ffffffffffffffffffffffffffffffffffffffff168152602001908152602001600020819055506001806000828254620003ee9190620009c7565b92505081905550809150509695505050505050565b61202b8062000a2583390190565b6000819050919050565b620004268162000411565b82525050565b60006020820190506200044360008301846200041b565b92915050565b6000604051905090565b600080fd5b600080fd5b620004688162000411565b81146200047457600080fd5b50565b60008135905062000488816200045d565b92915050565b600060208284031215620004a757620004a662000453565b5b6000620004b78482850162000477565b91505092915050565b600073ffffffffffffffffffffffffffffffffffffffff82169050919050565b6000620004ed82620004c0565b9050919050565b620004ff81620004e0565b82525050565b60006020820190506200051c6000830184620004f4565b92915050565b600081519050919050565b600082825260208201905092915050565b6000819050602082019050919050565b6200055981620004e0565b82525050565b60006200056d83836200054e565b60208301905092915050565b6000602082019050919050565b6000620005938262000522565b6200059f81856200052d565b9350620005ac836200053e565b8060005b83811015620005e3578151620005c788826200055f565b9750620005d48362000579565b925050600181019050620005b0565b5085935050505092915050565b600060208201905081810360008301526200060c818462000586565b905092915050565b6200061f81620004e0565b81146200062b57600080fd5b50565b6000813590506200063f8162000614565b92915050565b600080fd5b600080fd5b6000601f19601f8301169050919050565b7f4e487b7100000000000000000000000000000000000000000000000000000000600052604160045260246000fd5b6200069a826200064f565b810181811067ffffffffffffffff82111715620006bc57620006bb62000660565b5b80604052505050565b6000620006d162000449565b9050620006df82826200068f565b919050565b600067ffffffffffffffff82111562000702576200070162000660565b5b6200070d826200064f565b9050602081019050919050565b82818337600083830152505050565b6000620007406200073a84620006e4565b620006c5565b9050828152602081018484840111156200075f576200075e6200064a565b5b6200076c8482856200071a565b509392505050565b600082601f8301126200078c576200078b62000645565b5b81356200079e84826020860162000729565b91505092915050565b60008060008060008060c08789031215620007c757620007c662000453565b5b6000620007d789828a016200062e565b965050602087013567ffffffffffffffff811115620007fb57620007fa62000458565b5b6200080989828a0162000774565b95505060406200081c89828a0162000477565b94505060606200082f89828a0162000477565b93505060806200084289828a0162000477565b92505060a06200085589828a0162000477565b9150509295509295509295565b7f4e487b7100000000000000000000000000000000000000000000000000000000600052603260045260246000fd5b600081519050919050565b600082825260208201905092915050565b60005b83811015620008cd578082015181840152602081019050620008b0565b83811115620008dd576000848401525b50505050565b6000620008f08262000891565b620008fc81856200089c565b93506200090e818560208601620008ad565b62000919816200064f565b840191505092915050565b600060c0820190506200093b6000830189620004f4565b81810360208301526200094f8188620008e3565b90506200096060408301876200041b565b6200096f60608301866200041b565b6200097e60808301856200041b565b6200098d60a08301846200041b565b979650505050505050565b7f4e487b7100000000000000000000000000000000000000000000000000000000600052601160045260246000fd5b6000620009d48262000411565b9150620009e18362000411565b9250827fffffffffffffffffffffffffffffffffffffffffffffffffffffffffffffffff0382111562000a195762000a1862000998565b5b82820190509291505056fe60806040523480156200001157600080fd5b506040516200202b3803806200202b8339818101604052810190620000379190620003d9565b856000806101000a81548173ffffffffffffffffffffffffffffffffffffffff021916908373ffffffffffffffffffffffffffffffffffffffff16021790555084600190805190602001906200008f929190620000ec565b5083600281905550826008819055508160098190555080600a819055506201518081620000bd9190620004c3565b6201518042620000ce919062000553565b620000da91906200058b565b600b819055505050505050506200064d565b828054620000fa9062000617565b90600052602060002090601f0160209004810192826200011e57600085556200016a565b82601f106200013957805160ff19168380011785556200016a565b828001600101855582156200016a579182015b82811115620001695782518255916020019190600101906200014c565b5b5090506200017991906200017d565b5090565b5b80821115620001985760008160009055506001016200017e565b5090565b6000604051905090565b600080fd5b600080fd5b600073ffffffffffffffffffffffffffffffffffffffff82169050919050565b6000620001dd82620001b0565b9050919050565b620001ef81620001d0565b8114620001fb57600080fd5b50565b6000815190506200020f81620001e4565b92915050565b600080fd5b600080fd5b6000601f19601f8301169050919050565b7f4e487b7100000000000000000000000000000000000000000000000000000000600052604160045260246000fd5b6200026a826200021f565b810181811067ffffffffffffffff821117156200028c576200028b62000230565b5b80604052505050565b6000620002a16200019c565b9050620002af82826200025f565b919050565b600067ffffffffffffffff821115620002d257620002d162000230565b5b620002dd826200021f565b9050602081019050919050565b60005b838110156200030a578082015181840152602081019050620002ed565b838111156200031a576000848401525b50505050565b6000620003376200033184620002b4565b62000295565b9050828152602081018484840111156200035657620003556200021a565b5b62000363848285620002ea565b509392505050565b600082601f83011262000383576200038262000215565b5b81516200039584826020860162000320565b91505092915050565b6000819050919050565b620003b3816200039e565b8114620003bf57600080fd5b50565b600081519050620003d381620003a8565b92915050565b60008060008060008060c08789031215620003f957620003f8620001a6565b5b60006200040989828a01620001fe565b965050602087015167ffffffffffffffff8111156200042d576200042c620001ab565b5b6200043b89828a016200036b565b95505060406200044e89828a01620003c2565b94505060606200046189828a01620003c2565b93505060806200047489828a01620003c2565b92505060a06200048789828a01620003c2565b9150509295509295509295565b7f4e487b7100000000000000000000000000000000000000000000000000000000600052601160045260246000fd5b6000620004d0826200039e565b9150620004dd836200039e565b9250817fffffffffffffffffffffffffffffffffffffffffffffffffffffffffffffffff048311821515161562000519576200051862000494565b5b828202905092915050565b7f4e487b7100000000000000000000000000000000000000000000000000000000600052601260045260246000fd5b600062000560826200039e565b91506200056d836200039e565b92508262000580576200057f62000524565b5b828204905092915050565b600062000598826200039e565b9150620005a5836200039e565b9250827fffffffffffffffffffffffffffffffffffffffffffffffffffffffffffffffff03821115620005dd57620005dc62000494565b5b828201905092915050565b7f4e487b7100000000000000000000000000000000000000000000000000000000600052602260045260246000fd5b600060028204905060018216806200063057607f821691505b60208210811415620006475762000646620005e8565b5b50919050565b6119ce806200065d6000396000f3fe60806040526004361061012a5760003560e01c806367eeba0c116100ab578063cea386dc1161006f578063cea386dc146103f4578063d4d8bbae1461041f578063e6eeb7fd1461045c578063f7b2a7be14610485578063f916cd29146104b0578063fff490f2146104ed5761012a565b806367eeba0c146103165780639c7c3386146103415780639dabff2514610380578063a00c96d71461039c578063c86dd7e4146103cb5761012a565b80633ec6952a116100f25780633ec6952a146102185780633f0bee32146102435780633f18eab91461028357806349bb7f90146102c05780635f8d96de146102eb5761012a565b806304a79c971461012f5780630724fda91461015a5780630fb5a6b41461018557806329dcb0cf146101b057806330558eaf146101db575b600080fd5b34801561013b57600080fd5b5061014461052a565b6040516101519190611124565b60405180910390f35b34801561016657600080fd5b5061016f610530565b60405161017c91906111d8565b60405180910390f35b34801561019157600080fd5b5061019a6105be565b6040516101a79190611124565b60405180910390f35b3480156101bc57600080fd5b506101c56105c4565b6040516101d29190611124565b60405180910390f35b3480156101e757600080fd5b5061020260048036038101906101fd919061126c565b6105ca565b60405161020f91906112b4565b60405180910390f35b34801561022457600080fd5b5061022d6105ea565b60405161023a91906112de565b60405180910390f35b34801561024f57600080fd5b5061026a60048036038101906102659190611325565b61060e565b60405161027a9493929190611352565b60405180910390f35b34801561028f57600080fd5b506102aa60048036038101906102a5919061126c565b610806565b6040516102b79190611124565b60405180910390f35b3480156102cc57600080fd5b506102d561081e565b6040516102e29190611124565b60405180910390f35b3480156102f757600080fd5b50610300610828565b60405161030d9190611124565b60405180910390f35b34801561032257600080fd5b5061032b610832565b6040516103389190611124565b60405180910390f35b34801561034d57600080fd5b506103686004803603810190610363919061126c565b610838565b604051610377939291906113ac565b60405180910390f35b61039a60048036038101906103959190611436565b610adc565b005b3480156103a857600080fd5b506103b1610d00565b6040516103c2959493929190611463565b60405180910390f35b3480156103d757600080fd5b506103f260048036038101906103ed9190611325565b610db3565b005b34801561040057600080fd5b50610409610dbd565b6040516104169190611124565b60405180910390f35b34801561042b57600080fd5b506104466004803603810190610441919061126c565b610dc3565b6040516104539190611124565b60405180910390f35b34801561046857600080fd5b50610483600480360381019061047e91906115f2565b610e0c565b005b34801561049157600080fd5b5061049a61102a565b6040516104a79190611124565b60405180910390f35b3480156104bc57600080fd5b506104d760048036038101906104d2919061126c565b611030565b6040516104e491906112b4565b60405180910390f35b3480156104f957600080fd5b50610514600480360381019061050f919061126c565b611050565b6040516105219190611124565b60405180910390f35b60085481565b6001805461053d906116dc565b80601f0160208091040260200160405190810160405280929190818152602001828054610569906116dc565b80156105b65780601f1061058b576101008083540402835291602001916105b6565b820191906000526020600020905b81548152906001019060200180831161059957829003601f168201915b505050505081565b600a5481565b600b5481565b60046020528060005260406000206000915054906101000a900460ff1681565b60008054906101000a900473ffffffffffffffffffffffffffffffffffffffff1681565b600c818154811061061e57600080fd5b9060005260206000209060040201600091509050806000018054610641906116dc565b80601f016020809104026020016040519081016040528092919081815260200182805461066d906116dc565b80156106ba5780601f1061068f576101008083540402835291602001916106ba565b820191906000526020600020905b81548152906001019060200180831161069d57829003601f168201915b5050505050908060010180546106cf906116dc565b80601f01602080910402602001604051908101604052809291908181526020018280546106fb906116dc565b80156107485780601f1061071d57610100808354040283529160200191610748565b820191906000526020600020905b81548152906001019060200180831161072b57829003601f168201915b50505050509080600201805461075d906116dc565b80601f0160208091040260200160405190810160405280929190818152602001828054610789906116dc565b80156107d65780601f106107ab576101008083540402835291602001916107d6565b820191906000526020600020905b8154815290600101906020018083116107b957829003601f168201915b5050505050908060030160009054906101000a900473ffffffffffffffffffffffffffffffffffffffff16905084565b60066020528060005260406000206000915090505481565b6000600754905090565b6000600b54905090565b60095481565b60608060606000600660008673ffffffffffffffffffffffffffffffffffffffff1673ffffffffffffffffffffffffffffffffffffffff1681526020019081526020016000205490506000600c82815481106108975761089661170e565b5b90600052602060002090600402016040518060800160405290816000820180546108c0906116dc565b80601f01602080910402602001604051908101604052809291908181526020018280546108ec906116dc565b80156109395780601f1061090e57610100808354040283529160200191610939565b820191906000526020600020905b81548152906001019060200180831161091c57829003601f168201915b50505050508152602001600182018054610952906116dc565b80601f016020809104026020016040519081016040528092919081815260200182805461097e906116dc565b80156109cb5780601f106109a0576101008083540402835291602001916109cb565b820191906000526020600020905b8154815290600101906020018083116109ae57829003601f168201915b505050505081526020016002820180546109e4906116dc565b80601f0160208091040260200160405190810160405280929190818152602001828054610a10906116dc565b8015610a5d5780601f10610a3257610100808354040283529160200191610a5d565b820191906000526020600020905b815481529060010190602001808311610a4057829003601f168201915b505050505081526020016003820160009054906101000a900473ffffffffffffffffffffffffffffffffffffffff1673ffffffffffffffffffffffffffffffffffffffff1673ffffffffffffffffffffffffffffffffffffffff1681525050905080600001518160200151826040015194509450945050509193909250565b60011515600460008373ffffffffffffffffffffffffffffffffffffffff1673ffffffffffffffffffffffffffffffffffffffff16815260200190815260200160002060009054906101000a900460ff1615151415610b70576040517f08c379a0000000000000000000000000000000000000000000000000000000008152600401610b67906117af565b60405180910390fd5b6002543414610bb4576040517f08c379a0000000000000000000000000000000000000000000000000000000008152600401610bab9061181b565b60405180910390fd5b6001600460008373ffffffffffffffffffffffffffffffffffffffff1673ffffffffffffffffffffffffffffffffffffffff16815260200190815260200160002060006101000a81548160ff02191690831515021790555060008173ffffffffffffffffffffffffffffffffffffffff1634604051610c3290611892565b60006040518083038185875af1925050503d8060008114610c6f576040519150601f19603f3d011682016040523d82523d6000602084013e610c74565b606091505b5050905034600560008473ffffffffffffffffffffffffffffffffffffffff1673ffffffffffffffffffffffffffffffffffffffff1681526020019081526020016000208190555080610cfc576040517f08c379a0000000000000000000000000000000000000000000000000000000008152600401610cf3906118f3565b60405180910390fd5b5050565b60606000806000806001600254600854600954600a54848054610d22906116dc565b80601f0160208091040260200160405190810160405280929190818152602001828054610d4e906116dc565b8015610d9b5780601f10610d7057610100808354040283529160200191610d9b565b820191906000526020600020905b815481529060010190602001808311610d7e57829003601f168201915b50505050509450945094509450945094509091929394565b8060088190555050565b60075481565b6000600560008373ffffffffffffffffffffffffffffffffffffffff1673ffffffffffffffffffffffffffffffffffffffff168152602001908152602001600020549050919050565b60008054906101000a900473ffffffffffffffffffffffffffffffffffffffff1673ffffffffffffffffffffffffffffffffffffffff163373ffffffffffffffffffffffffffffffffffffffff1614610e6457600080fd5b600060405180608001604052808681526020018581526020018481526020018373ffffffffffffffffffffffffffffffffffffffff168152509050600c8190806001815401808255809150506001900390600052602060002090600402016000909190919091506000820151816000019080519060200190610ee7929190611068565b506020820151816001019080519060200190610f04929190611068565b506040820151816002019080519060200190610f21929190611068565b5060608201518160030160006101000a81548173ffffffffffffffffffffffffffffffffffffffff021916908373ffffffffffffffffffffffffffffffffffffffff1602179055505050600754600660008473ffffffffffffffffffffffffffffffffffffffff1673ffffffffffffffffffffffffffffffffffffffff16815260200190815260200160002081905550600160076000828254610fc49190611942565b925050819055506000600460008473ffffffffffffffffffffffffffffffffffffffff1673ffffffffffffffffffffffffffffffffffffffff16815260200190815260200160002060006101000a81548160ff0219169083151502179055505050505050565b60025481565b60036020528060005260406000206000915054906101000a900460ff1681565b60056020528060005260406000206000915090505481565b828054611074906116dc565b90600052602060002090601f01602090048101928261109657600085556110dd565b82601f106110af57805160ff19168380011785556110dd565b828001600101855582156110dd579182015b828111156110dc5782518255916020019190600101906110c1565b5b5090506110ea91906110ee565b5090565b5b808211156111075760008160009055506001016110ef565b5090565b6000819050919050565b61111e8161110b565b82525050565b60006020820190506111396000830184611115565b92915050565b600081519050919050565b600082825260208201905092915050565b60005b8381101561117957808201518184015260208101905061115e565b83811115611188576000848401525b50505050565b6000601f19601f8301169050919050565b60006111aa8261113f565b6111b4818561114a565b93506111c481856020860161115b565b6111cd8161118e565b840191505092915050565b600060208201905081810360008301526111f2818461119f565b905092915050565b6000604051905090565b600080fd5b600080fd5b600073ffffffffffffffffffffffffffffffffffffffff82169050919050565b60006112398261120e565b9050919050565b6112498161122e565b811461125457600080fd5b50565b60008135905061126681611240565b92915050565b60006020828403121561128257611281611204565b5b600061129084828501611257565b91505092915050565b60008115159050919050565b6112ae81611299565b82525050565b60006020820190506112c960008301846112a5565b92915050565b6112d88161122e565b82525050565b60006020820190506112f360008301846112cf565b92915050565b6113028161110b565b811461130d57600080fd5b50565b60008135905061131f816112f9565b92915050565b60006020828403121561133b5761133a611204565b5b600061134984828501611310565b91505092915050565b6000608082019050818103600083015261136c818761119f565b90508181036020830152611380818661119f565b90508181036040830152611394818561119f565b90506113a360608301846112cf565b95945050505050565b600060608201905081810360008301526113c6818661119f565b905081810360208301526113da818561119f565b905081810360408301526113ee818461119f565b9050949350505050565b60006114038261120e565b9050919050565b611413816113f8565b811461141e57600080fd5b50565b6000813590506114308161140a565b92915050565b60006020828403121561144c5761144b611204565b5b600061145a84828501611421565b91505092915050565b600060a082019050818103600083015261147d818861119f565b905061148c6020830187611115565b6114996040830186611115565b6114a66060830185611115565b6114b36080830184611115565b9695505050505050565b600080fd5b600080fd5b7f4e487b7100000000000000000000000000000000000000000000000000000000600052604160045260246000fd5b6114ff8261118e565b810181811067ffffffffffffffff8211171561151e5761151d6114c7565b5b80604052505050565b60006115316111fa565b905061153d82826114f6565b919050565b600067ffffffffffffffff82111561155d5761155c6114c7565b5b6115668261118e565b9050602081019050919050565b82818337600083830152505050565b600061159561159084611542565b611527565b9050828152602081018484840111156115b1576115b06114c2565b5b6115bc848285611573565b509392505050565b600082601f8301126115d9576115d86114bd565b5b81356115e9848260208601611582565b91505092915050565b6000806000806080858703121561160c5761160b611204565b5b600085013567ffffffffffffffff81111561162a57611629611209565b5b611636878288016115c4565b945050602085013567ffffffffffffffff81111561165757611656611209565b5b611663878288016115c4565b935050604085013567ffffffffffffffff81111561168457611683611209565b5b611690878288016115c4565b92505060606116a187828801611257565b91505092959194509250565b7f4e487b7100000000000000000000000000000000000000000000000000000000600052602260045260246000fd5b600060028204905060018216806116f457607f821691505b60208210811415611708576117076116ad565b5b50919050565b7f4e487b7100000000000000000000000000000000000000000000000000000000600052603260045260246000fd5b7f50726f6d6f74657220616c72656164792072656365697665642072657761726460008201527f2100000000000000000000000000000000000000000000000000000000000000602082015250565b600061179960218361114a565b91506117a48261173d565b604082019050919050565b600060208201905081810360008301526117c88161178c565b9050919050565b7f52657761726420616d6f756e7420646f6573206e6f74206d6174636821000000600082015250565b6000611805601d8361114a565b9150611810826117cf565b602082019050919050565b60006020820190508181036000830152611834816117f8565b9050919050565b600081905092915050565b7f53656e64696e6720726577617264000000000000000000000000000000000000600082015250565b600061187c600e8361183b565b915061188782611846565b600e82019050919050565b600061189d8261186f565b9150819050919050565b7f4661696c656420746f2073656e64204574686572000000000000000000000000600082015250565b60006118dd60148361114a565b91506118e8826118a7565b602082019050919050565b6000602082019050818103600083015261190c816118d0565b9050919050565b7f4e487b7100000000000000000000000000000000000000000000000000000000600052601160045260246000fd5b600061194d8261110b565b91506119588361110b565b9250827fffffffffffffffffffffffffffffffffffffffffffffffffffffffffffffffff0382111561198d5761198c611913565b5b82820190509291505056fea2646970667358221220ac961488c7c753f8b6e16cbbe4d702683d202c0f7a50cca55880fc3dd72e602564736f6c634300080a0033a2646970667358221220eae7f02883837f32b63a8345ad333de167444e34d3182f18aadcb33f46d406e064736f6c634300080a0033",
  "linkReferences": {},
  "deployedLinkReferences": {}
}